:10000000ECC0000007C1000005C1000003C10000F2
:1000100001C10000FFC00000FDC00000FBC00000E7
:10002000F9C00000F7C00000F5C00000F3C00000F8
:100030006CC4000074C400005EC4000045C400002D
:10004000E9C00000E7C000000C940809E3C000000C
:1000500070C40000DFC000000C941A0E0C94240E33
:10006000D9C00000D7C00000D5C0000088C600007D
:10007000D1C00000CFC00000CDC0000045455052A7
:100080004F4D207772697465206661696C65640AFA
:1000900000454550524F4D20777269746520435298
:1000A00043206D6973736D61746368202D207265E0
:1000B0007472696E670A00454550524F4D20777241
:1000C000697465206F6B0A00454550524F4D207290
:1000D000656164206661696C65640A00454550523B
:1000E0004F4D207265616420435243206D697373E4
:1000F0006D61746368202D2072657472696E670A81
:1001000000454550524F4D2072656164206F6B0A67
:10011000004C6F6164696E672064656661756C741C
:100120002076616C75657300636820363A616E6194
:100130006C6F670A00636820353A616E616C6F67A7
:100140000A00647331386232300A00616E616C6F8C
:10015000670A00636820343A0064733138623230D1
:100160000A00616E616C6F670A00636820333A00B1
:10017000647331386232300A00616E616C6F670AF5
:1001800000636820323A00647331386232300A000A
:10019000616E616C6F670A00636820313A006368C2
:1001A000616E6E656C20636F6E6669673A0A000A5D
:1001B000004D6172203139203230313700556E697F
:1001C0006D6F64756C650A436F6D70696C617469FD
:1001D0006F6E206461746520000011241FBECFEF94
:1001E000D8E0DEBFCDBF11E0A0E0B1E0E4E5FDE185
:1001F00002C005900D92A032B107D9F723E0A0E22A
:10020000B1E001C01D92A834B207E1F70E94770D5A
:100210000C94A80EF5CE6623D1F0FC012FEF260F2B
:1002200030E02F5F3F4FBC01620F731F80E058E04A
:100230004CE82191952F322F3827869530FD842761
:1002400026959150C1F7E617F70799F7089580E0D2
:1002500008957F928F929F92AF92BF92CF92DF923A
:10026000EF92FF920F931F93CF93DF937C016B016B
:100270005A01722E4801012B19F40CEC4BD20FC01D
:1002800005E548D2E40188E0880E911C0991272DEC
:10029000A501B601C7013ED2C815D905B9F7DF914E
:1002A000CF911F910F91FF90EF90DF90CF90BF9073
:1002B000AF909F908F907F900895CF93C82F80FF2D
:1002C0000BC081E08093D10120E843E250E064E27A
:1002D00070E085E290E0E2D1C1FF0BC081E0809345
:1002E000D20120E243E250E064E270E085E290E077
:1002F000D5D1C2FF0BC081E08093D30120E446E258
:1003000050E067E270E088E290E0C8D1C3FF0BC024
:1003100081E08093D40120E246E250E067E270E0A1
:1003200088E290E0BBD1CF910895BF92CF92DF9247
:10033000EF92FF920F931F93CF93DF93EC017B011A
:100340006A01B22EABD1813061F02B2DA601B7012D
:10035000CE017FDF04E42B2DA601B701CE01DAD157
:1003600080E0DF91CF911F910F91FF90EF90DF9090
:10037000CF90BF9008957F928F929F92AF92BF923D
:10038000CF92DF92EF92FF920F931F93CF93DF9361
:100390006C015B014A01722E81D18130A9F1272DB8
:1003A000A401B501C60155DF0EEB272DA401B5014F
:1003B000C601B0D1E7018701075F1F4F272DA401B8
:1003C000B501C601E3D18993C017D107B9F7F70189
:1003D00091818081892B9281892B9381892B9481B2
:1003E000892B9581892B9681892B9781892B49F0BF
:1003F00068E0C70110DFF7019085891304C080E031
:1004000003C083E001C082E0DF91CF911F910F9183
:10041000FF90EF90DF90CF90BF90AF909F908F9024
:100420007F900895CF92DF92EF92FF920F931F93E8
:10043000CF93DF93CDB7DEB729970FB6F894DEBF21
:100440000FBECDBF6701FE0131967F0194DF882387
:1004500021F0F601118210820BC08A8190E0982F62
:1004600088272981820F911DF6019183808380E086
:1004700029960FB6F894DEBF0FBECDBFDF91CF91A6
:100480001F910F91FF90EF90DF90CF900895EF9222
:10049000FF920F931F93CF93DF938091D50181112A
:1004A00059C08091D601811110C08091D101813055
:1004B00009F0E7C000E010E020E843E250E064E229
:1004C00070E085E290E031DF34C0813081F48091CA
:1004D000D201813009F0D5C000E010E020E243E213
:1004E00050E064E270E085E290E01FDF22C08230DD
:1004F00081F48091D301813009F0C3C000E010E0A5
:1005000020E446E250E067E270E088E290E00DDF30
:1005100010C0833071F49091D401913071F400E0F7
:1005200010E020E246E250E067E270E088E290E00E
:10053000FCDE8091D601843020F48F5F8093D60159
:10054000A6C0C1EDD1E01D8285D19F838E8381E05D
:100550008C839DC0813069F48091D7019091D8013E
:100560007ED18032934008F492C082E08093D5011E
:100570008EC0823009F06EC08091D601811116C004
:100580008091D101813009F07FC00F2EF9EDEF2E5F
:10059000F1E0FF2EF02D00E010E020E843E250E013
:1005A00064E270E085E290E03DDF46C08130B1F466
:1005B0008091D201813009F067C00F2EFBEDEF2E44
:1005C000F1E0FF2EF02D00E010E020E243E250E0E9
:1005D00064E270E085E290E025DF2EC08230B1F465
:1005E0008091D301813009F04FC00F2EFDEDEF2E29
:1005F000F1E0FF2EF02D00E010E020E446E250E0B4
:1006000067E270E088E290E00DDF16C08330A1F46D
:100610009091D4019130A1F40F2EFFEDEF2EF1E077
:10062000FF2EF02D00E010E020E246E250E067E20D
:1006300070E088E290E0F6DE8091D601843020F40C
:100640008F5F8093D60123C0E1EDF1E0158283E056
:1006500084831DC08330D9F4E9EDF1E0808191817C
:100660009187808782819381938782878481958116
:100670009587848786819781978786871092D50191
:1006800006C08091D60159CF8091D601D9CFDF9194
:10069000CF911F910F91FF90EF900895CF93DF932B
:1006A000DC01FB016FB7F8948C91822B8C938081D5
:1006B000822B80839C91322F309593239C938FE5DE
:1006C00099E00197F1F700C00000808183238083C7
:1006D000CFE8D1E02197F1F700C00000EA0188815E
:1006E000CFE1D3E02197F1F700C000009C91922B5D
:1006F0009C939081922B9083EFE5F9E03197F1F78D
:1007000000C000006FBF282381E009F480E0DF9182
:10071000CF9108950F93CF93DF93FC01DB016FB767
:10072000F89448E050E091E0322F30958081822BA0
:1007300080838C91822B8C93808183238083892F6B
:10074000802371F08AE28A95F1F700C08081822BC4
:100750008083CFE3D1E02197F1F700C000000DC006
:10076000CFE3D1E02197F1F700C000008081822B18
:100770008083DAE0DA95F1F700C0990F4150510912
:10078000A9F66FBFDF91CF910F910895AF92BF92FD
:10079000CF92DF92EF92FF920F931F93CF93DF934D
:1007A000EC01DB01AFB6F89468E070E031E080E086
:1007B000122F1095DD24D39400E0B12CC12C988128
:1007C000922B98839C91922B9C9398819123988350
:1007D0009AE09A95F1F700C09C9191239C93EAE1ED
:1007E000EA95F1F700C0FA0190819223ED2DF02FE8
:1007F00011F4EB2DFC2D3E9F70013F9FF00C112456
:100800008E29EFEEF0E03197F1F700C00000330FD2
:1008100061507109A1F6AFBEDF91CF911F910F9189
:10082000FF90EF90DF90CF90BF90AF90089584B588
:10083000826084BD89EF87BDEEE6F0E08081826052
:10084000808385B5836085BDE1E8F0E080818360C9
:100850008083089580912201909123010895209131
:100860002201309123012817390728F0A901481BDC
:10087000590BCA010895281B390BC9010197089526
:1008800020918400309185002817390728F0A901AC
:10089000481B590BCA010895281B390BC901019740
:1008A00008958091200190912101EADF499750F04D
:1008B0008091840090918500909321018093200184
:1008C00081E0089580E008951F920F920FB60F9275
:1008D00011248F939F93809122019091230101967F
:1008E00090932301809322019F918F910F900FBECF
:1008F0000F901F9018951F920F920FB60F92112410
:100900000F900FBE0F901F9018951F920F920FB669
:100910000F9211240F900FBE0F901F9018951F92E9
:100920000F920FB60F9211240F900FBE0F901F90D1
:1009300018951F920F920FB60F9211248F939F93C9
:10094000EF93FF938091C90080FF1AC0E9ECF0E0BB
:100950008081816080839091D200E0912601EF5FD9
:10096000EF7180912501E81731F0E0932601F0E066
:10097000E75DFE4F90838091240182608093240183
:100980008091C90081FF1DC0E9ECF0E080818260A8
:1009900080839091280180912701981769F0E09158
:1009A0002701EF5FEF77E0932701F0E0E75BFE4F71
:1009B00080818093D20005C0EAECF0E080818D7FD9
:1009C0008083FF91EF919F918F910F900FBE0F90B9
:1009D0001F901895CF93DF93109228011092270152
:1009E0001092260110922501C8ECD0E020E828835F
:1009F0009C0140E050E060E472E48FE090E00E94EF
:100A0000500EDA01C9010197A109B109892F9A2F66
:100A1000AB2FBB27A7FDBA958093CE002150209322
:100A2000CD0080E98093CC00EAECF0E08081816029
:100A3000808388818F608883DF91CF910895909122
:100A40002601809125019817A9F0909125019F5FBB
:100A50009F71E92FF0E0E75DFE4F20818091240136
:100A6000909325011092240190E0982F8827820FFF
:100A7000911D089580E091E0089590912601909154
:100A80002501209128012F5F2F77909127012917A9
:100A9000E1F3422F50E0FA01E75BFE4F80832093A1
:100AA00028018091C90084FD0DC0EAECF0E080814E
:100AB0008260808320932701FA01E75BFE4F8081EB
:100AC0008093D20008959091260190912501209164
:100AD00028012F5F2F77909127012917E1F3422FEB
:100AE00050E0FA01E75BFE4F80832093280180915C
:100AF000C90084FD0DC0EAECF0E080818260808353
:100B000020932701FA01E75BFE4F80818093D2009A
:100B10000895CF93DF93EC012196FC018491882303
:100B200031F0ABDFFE01849121968111FACFDF9184
:100B3000CF910895ECE7F0E090818F70907F892B42
:100B400080830895EBE7F0E09081906A9083EAE774
:100B5000F0E090819F689083662331F0ECE7F0E04D
:100B600090819064908305C0ECE7F0E09081906CF8
:100B7000908394E09093080280FF05C091E09093E9
:100B8000CA021092080281FF05C091E09093CB0247
:100B90009093080282FF06C091E09093CC0292E00D
:100BA0009093080283FF06C081E08093CD0283E02A
:100BB00080930802A7E0B2E081E08093CE028093A8
:100BC000CF0212961C921297E9EEF1E084E0808346
:100BD00086E081838AE0828389E0838388E084835E
:100BE00085E085831092BF021092BE021092C1026E
:100BF0001092C0021092C3021092C2021092C5025B
:100C00001092C4021092C7021092C6021092C9023A
:100C10001092C8021196EC91F0E0E751FE4F8081EE
:100C200089CF0895EAE7F0E08081806480830895A9
:100C3000CF92DF92EF92FF920F931F93CF939091F9
:100C40000702C091000121E030E0C63011F020E041
:100C500030E0892F90E082239323892B39F140E003
:100C600050E0FA01E653FD4F80818130B1F4FA0182
:100C7000EE0FFF1FDF01A254BD4F2D913C91A9E85B
:100C8000B8E80E946C0E96958795969587959695EF
:100C90008795E151FE4F918380834F5F5F4F4630D0
:100CA0005105F9F6C150C09300015CC0C63008F090
:100CB00059C00C2F10E06801CC0CDD1CF601E1518D
:100CC000FE4F20813181780186E0E80EF11CEE0CA8
:100CD000FF1CF701E05FFC4FA081B1810E947B0EF9
:100CE0002FEF33E040E050E0B9D7F601E05FFC4F72
:100CF00080819181280F391FF701E151FE4F318327
:100D0000208320813181F601E85DFC4F8081918153
:100D10008217930734F4F601E550FE4F91838083E8
:100D200018C0F801EE0FFF1FE550FE4F2081318102
:100D3000F801EE0FFF1FEC5CFC4F808191812817BA
:100D400039073CF4000F111FF801E550FE4F918365
:100D50008083C11104C086E08093000103C0C150AC
:100D6000C0930001E7E0F2E080818E7F8083CF9125
:100D70001F910F91FF90EF90DF90CF9008951F92F9
:100D80000F920FB60F9211242F933F934F935F93BF
:100D90006F937F938F939F93AF93BF93EF93FF9343
:100DA0008091070281FF21C0A7E0B2E01196EC918B
:100DB000119712968C9112979FE0E99FF0011124F0
:100DC000E80FF11DEE0FFF1FE95FFD4F2381348116
:100DD0001196EC91F0E0EE0FFF1FE254FD4F808181
:100DE0009181821B930B91838083A7E0B2E01196DF
:100DF000EC91119712969C91129720917800309166
:100E000079008FE08E9FF0011124E90FF11DEE0FA4
:100E1000FF1FE95FFD4F348323831196EC911197F7
:100E200012969C9112978E9FF0011124E90FF11DEB
:100E3000EE0FFF1FE95FFD4F838194811196EC91C6
:100E40001197F0E0EE0FFF1FE254FD4F208131813A
:100E5000820F931F9183808311968C9111978F5FDE
:100E600011968C9311978630C1F411961C921197AC
:100E700012968C9112978F5F12968C9312978F30E7
:100E800031F412961C9212978C9182608C938C9103
:100E900081FF03C08C9181608C931196EC91119726
:100EA000F0E0E653FD4F80818823B1F2E091080223
:100EB000F0E0E751FE4F80813DDEB4DEFF91EF911F
:100EC000BF91AF919F918F917F916F915F914F9162
:100ED0003F912F910F900FBE0F901F9018952F925A
:100EE0003F924F925F926F927F928F929F92AF92BA
:100EF000BF92CF92DF92EF92FF920F931F93CF9307
:100F0000DF9300D000D0CDB7DEB790E06C0120EFCA
:100F1000C21A2DEFD20A2C0130E7431A3EEF530AD2
:100F2000DC01A057BD4FBA83A983FC01E057FA4FFB
:100F3000FC83EB831C01F0EF2F1AF9EF3F0A81E0ED
:100F40008093D8001092E500E2EEF0E080818E60A0
:100F50008083E3EEF0E080818C608083E4EEF0E05B
:100F600080818763808380E02DEE30E0AFEEB0E0DB
:100F70004EEE50E0982F9295907FF90190831C924D
:100F8000FA0110828F5F8630A9F70F2EFDEEEF2E4B
:100F9000F12CF02DD7011C9204EF10E0F801108223
:100FA00065EF70E0DB011C9246EF50E099249A94C3
:100FB000FA01908227EF30E0D9019C92EFEEF0E049
:100FC000108280818068808380EF90E0DC011C9239
:100FD000E1EFF0E010820F2EF2EFAF2EB12CF02DEA
:100FE000D5011C920F2EF3EF6F2E712CF02D68940B
:100FF000882484F8F3018082EEEDF0E08080A82D53
:10100000A160A0836894882484F8D7018C92D801C9
:101010001C92DB011C92DA019C92D9019C92AFEEEA
:10102000B0E01C928C90B82DB8688B2EAFEEB0E07B
:101030008C92DC011C92A1EFB0E01C928C2C880CED
:10104000880C880C880C880CD5018C92D694C79497
:10105000D694C794D694C794D301CC92D080BD2D9A
:10106000B260B0836894DD24D5F8D701DC92D80152
:101070001C92DB011C920F2EF0EE8F2EF02DDA0168
:101080008C92D9019C92AFEEB0E01C92DC011C92D4
:10109000A1EFB0E01C92D42CDD0CDD0CDD0CDD0CDE
:1010A000DD0CD501DC926201D694C794D694C79426
:1010B000D694C794D301CC92D080BD2DB460B083B8
:1010C0000F2EF0E3DF2EF02DD701DC92D8011C9219
:1010D000DB011C92DA018C92D9019C92AFEEB0E058
:1010E0001C92DC011C92A1EFB0E01C92D980DD0CB7
:1010F000DD0CDD0CDD0CDD0CD501DC92C980DA8065
:10110000D694C794D694C794D694C794D301CC925E
:10111000D080BD2DB860B0836894DD24D6F8D701A7
:10112000DC92D8011C92DB011C92DA018C92D9016D
:101130009C92AFEEB0E01C92DC011C92A1EFB0E0FB
:101140001C92DB80DD0CDD0CDD0CDD0CDD0CD50133
:10115000DC92CB80DC80D694C794D694C794D69486
:10116000C794D301CC92D080BD2DB061B0830F2E37
:10117000F0E5DF2EF02DD701DC92D8011C92DB01C7
:101180001C92DA019C92D9019C92AFEEB0E01C92C5
:101190002C9128682C93DC011C92A1EFB0E01C92EA
:1011A000822D8295880F807ED5018C93C101969502
:1011B00087959695879596958795D3018C93808191
:1011C000806280838091D0028E7F8093D002E8ED90
:1011D000F0E0808182608083EBEDF0E08081806AC6
:1011E00080830F900F900F900F90DF91CF911F9100
:1011F0000F91FF90EF90DF90CF90BF90AF909F90B6
:101200008F907F906F905F904F903F902F900895B8
:101210001F920F920FB60F9211242F938F939F93CB
:10122000AF93BF93EF93FF938091C9019091CA014F
:1012300001969093CA018093C9018091EC00807F50
:10124000EDEEF0E08083808182958F7091F4809143
:10125000EE0085FF05C08091D00282608093D002AD
:101260001092EE00EFEEF0E01082808180688083C3
:101270005FC08091ED0082958F708130D1F48091B4
:10128000EE0085FF0DC080E090E0AAEFB0E02C9169
:10129000FC01E052FD4F2087019688309105B9F797
:1012A0001092EE00EFEEF0E0108280818068808383
:1012B0003FC08091ED0082958F70823019F41092BA
:1012C000EE0036C08091ED0082958F70833019F466
:1012D0001092EE002DC08091ED0082958F708430C9
:1012E00019F41092EE0024C08091ED0082958F7069
:1012F0008530F1F48091EE0085FF0DC080E090E034
:10130000AAEFB0E02C91FC01E052FD4F20A701961E
:1013100088309105B9F78091D00288608093D0021F
:101320001092EE00EFEEF0E0108280818068808302
:10133000FF91EF91BF91AF919F918F912F910F905E
:101340000FBE0F901F90189580E48093ED00809160
:10135000DC0084FD0DC080E090E0AAEFB0E0FC016D
:10136000E052FD4F20A12C93019688309105B9F7EA
:101370001092EE0088E48093EF0008958091D002EF
:1013800083FFFFC180910803803409F030C1E0EE93
:10139000F2E081A522A590E0922B811520E2920730
:1013A00039F008F4E9C08730904208F44EC0E4C038
:1013B0008091D00280628093D00280910B038630AE
:1013C000F0F5E0910B03F0E0E653FD4F80818130B2
:1013D000E1F4A0EEB2E09B96EC919B97F0E0EE0F6B
:1013E000FF1FE151FE4F8081918194968C939497D9
:1013F0009B96EC919B97F0E0EE0FFF1FE151FE4FA3
:101400008081918195969C93BCC0A0EEB2E09B96A2
:10141000EC919B97F0E0EE0FFF1FE752FE4F8081AB
:1014200094968C9394979B96EC919B97F0E0EE0F9B
:10143000FF1FE752FE4F818195968C93A2C0809149
:10144000D00280618093D0029CC08091D0028062E3
:101450008093D00280910B03813041F138F08230CB
:1014600009F444C0833009F461C080C0A0EEB2E04A
:101470009A968C919A979996EC919997F0E0EE0F45
:10148000FF1FE25FFC4F808194968C9394979A960D
:101490008C919A979996EC919997F0E0EE0FFF1F37
:1014A000E25FFC4F818195968C936BC0A0EEB2E019
:1014B0009A968C919A979996EC919997F0E0EE0F05
:1014C000FF1FE65EFC4F808194968C9394979A96CA
:1014D0008C919A979996EC919997F0E0EE0FFF1FF7
:1014E000E65EFC4F818195968C934BC0A0EEB2E0F6
:1014F0009A968C919A979996EC919997F0E0EE0FC5
:10150000FF1FEA5DFC4F808194968C9394979A9686
:101510008C919A979996EC919997F0E0EE0FFF1FB6
:10152000EA5DFC4F818195968C932BC0A0EEB2E0D2
:101530009A968C919A979996EC919997F0E0EE0F84
:10154000FF1FEE5CFC4F808194968C9394979A9643
:101550008C919A979996EC919997F0E0EE0FFF1F76
:10156000EE5CFC4F818195968C930BC08091D002EC
:1015700080618093D00205C08091D0028061809309
:10158000D0028091D00284FD23C08091D00285FFDB
:101590000DC0E0EEF2E08BE480A381A581A382A5DB
:1015A00082A383A583A316A217A2E4C08091D002D0
:1015B00084FFE0C0E0EEF2E08FE480A381A581A388
:1015C00082A582A383A583A315A216A217A2D2C0C7
:1015D000E0EEF2E080E880A381A581A382A582A34A
:1015E00083A583A314A215A216A217A2C3C080913B
:1015F0000803837209F4B0C0E0EEF2E081A522A5F1
:1016000090E0922B813030E2930708F47DC0873060
:1016100020E2920728F08730904209F46EC074C02F
:1016200080910B038130F1F030F0823091F1833002
:1016300009F446C05CC0A0EEB2E09A968C919A97ED
:101640009996EC9199979C968C919C979D962C914C
:10165000F0E0EE0FFF1FE25FFC4F90E0922B9183D2
:10166000808357C0A0EEB2E09A968C919A97999693
:10167000EC9199979C968C919C979D962C91F0E07B
:10168000EE0FFF1FE65EFC4F90E0922B918380836C
:1016900040C0A0EEB2E09A968C919A979996EC9100
:1016A00099979C968C919C979D962C91F0E0EE0FCB
:1016B000FF1FEA5DFC4F90E0922B9183808329C04D
:1016C000A0EEB2E09A968C919A979996EC919997A0
:1016D0009C968C919C979D962C91F0E0EE0FFF1FAD
:1016E000EE5CFC4F90E0922B9183808312C080913E
:1016F000D00280618093D0020CC08091D0028062C1
:101700008093D00270D105C08091D0028061809317
:10171000D0028091D00284FD10C0E0EEF2E080E6BD
:1017200080A381A581A382A582A383A583A314A2FC
:1017300015A216A217A210D11DC0E0EEF2E080E8BB
:1017400080A381A581A382A582A383A583A314A2DC
:1017500015A216A217A20EC0E0EEF2E080E880A368
:1017600081A581A382A582A383A583A314A215A228
:1017700016A217A2E9DD8091D002877F8093D00264
:1017800008958091D00282FF58C08091020181307B
:1017900021F482E0809302010895823029F5A2EDC0
:1017A000B2E09C9111968C911197E0EEF2E0908B53
:1017B000818B12969C91129713968C911397928B12
:1017C000838B14969C91149715968C911597948BF6
:1017D000858B16969C91169717968C91968B878B76
:1017E00083E0809302010895833009F06AC0A2ED7E
:1017F000B2E018969C91189719968C911997E0EE83
:10180000F2E0908F818F1A969C911A971B968C917B
:101810001B97928F838F1C968C911C97848F1D969B
:101820008C91858F168E178E8091D0028B7F80933E
:10183000D00281E08093020108958091D00281FF5F
:1018400040C0809101018295807F8093ED0080915E
:10185000DC0090E00090010102C0959587950A9404
:10186000E2F780FD19C080E090E0AAEFB0E020919F
:101870000101FC0138E0239FE00DF11D1124E0522D
:10188000FD4F20812C9301968830910581F71092AD
:10189000EE0088E48093EF0080910101833070F0C6
:1018A00082E0809301018091D0028D7F8093D002ED
:1018B0008091D00284608093D00208958F5F8093DE
:1018C000010108950F931F93CF93DF93CFB7F8943F
:1018D00042E350E060E070E080E193E012D2CFBFDD
:1018E00000E113E0CFEFDFEF29C08191C8278C2FF3
:1018F00082958C27082E869586958025082E8695BC
:10190000802587700C2ECD2F869507948795D02D36
:10191000C82706948795D025C827E217F30729F72B
:10192000209729F481E091E0F4D880E010C08CED9C
:1019300090E0EFD883E0063A180729F0F8010E5C32
:101940001F4F9801D2CF88EC90E0E3D881E0DF917F
:10195000CF911F910F910895CF93DF93E0E1F3E0D2
:1019600040E453E02FEF3FEF81912827822F8295AB
:101970008227082E869586958025082E86958025B7
:101980008770022E232F869507948795302D282760
:101990000694879530252827E417F50729F7309313
:1019A000410320934003C2E0DFB7F89442E350E0E4
:1019B00060E070E080E193E0B4D1DFBF83DFD82F37
:1019C000811104C087EB90E0A4D809C081E990E0C0
:1019D000A0D8C15049F78CE790E09BD8D1E08D2F7B
:1019E000DF91CF910895E0E1F3E0ACE1B3E09D0138
:1019F0008FEF93E0119211928D939D93978B868B2D
:101A000057961C921E925697E217F30799F708957E
:101A1000CF93DF930DD90E9447024091CB0150E054
:101A2000E2EDF2E0A9EDB1E080E090E09A01082E4D
:101A300002C0359527950A94E2F720FD0AC0EC0113
:101A4000CC0FDD1FC550DE4F2881398131832083C3
:101A500006C018962D913C911997318320830196E9
:101A6000329612968430910509F7AFEEB1E05496A4
:101A70008D919C915597E2EDF2E091878087569683
:101A80008D919C9157979387828778DCDF91CF91D6
:101A9000089589B5836089BD529A249A5A9A2C9ADE
:101AA000239A579856985598219820983998519884
:101AB00038985F9A5E9A5D9A299A289A419A599A1B
:101AC000409A3F9A089589B18095881F8827881F7A
:101AD0004E9B82604D9B8460199B8860189B80613F
:101AE000319B8062499B8064309B80680895D1DF80
:101AF000EADF8093CC0182958F708093CB010E94A6
:101B000017046091CC0163FB662760F98091CB01DB
:101B1000809518D880E091EE0E94EA048091CC0173
:101B20008770DDD98091CB010E945D01E2E4F3E092
:101B300081E191E09383828383E091E091838083CC
:101B400078948DEB91E00E94890581EB91E00E94F1
:101B500089058FEA91E00E9489058EE991E00E9453
:101B6000890588E991E00E9489058091CB0180FD7B
:101B700005C080E991E00E94890504C087E891E0F2
:101B80000E94890581E891E00E9489058091CB013E
:101B900081FD05C089E791E00E94890504C080E7C6
:101BA00091E00E9489058AE691E00E948905809172
:101BB000CB0182FD05C082E691E00E94890504C048
:101BC00089E591E00E94890583E591E00E948905FD
:101BD0008091CB0183FD05C08BE491E00E948905D3
:101BE00004C082E491E00E94890585E391E00E94AF
:101BF000890588E291E00E94890564DE813029F43C
:101C0000F2DE81E191E00E9489055A9A2C980AD867
:101C10000E942A049093CE018093CD010E942A0451
:101C20009093D0018093CF010E9451048823E1F367
:101C3000EFDEFACF1F920F920FB60F9211240F9082
:101C40000FBE0F901F9018951F920F920FB60F9214
:101C500011240F900FBE0F901F901895A1E21A2E1D
:101C6000AA1BBB1BFD010DC0AA1FBB1FEE1FFF1F40
:101C7000A217B307E407F50720F0A21BB30BE40B90
:101C8000F50B661F771F881F991F1A9469F76095D7
:101C90007095809590959B01AC01BD01CF01089591
:101CA000052E97FB16F400940FD057FD05D0D6DF14
:101CB00007FC02D046F408C0509540953095219518
:101CC0003F4F4F4F5F4F0895909580957095619568
:101CD0007F4F8F4F9F4F0895A29FB001B39FC001C8
:101CE000A39F700D811D1124911DB29F700D811D48
:101CF0001124911D0895F0DFB7FF0895821B930B07
:101D00000895DC01CB01FC01F999FECF06C0F2BDBC
:101D1000E1BDF89A319600B40D9241505040B8F7A9
:101D20000895DC01CB0102C02D9105D041505040F7
:101D3000D8F70895262FF999FECF1FBA92BD81BD1D
:101D400020BD0FB6F894FA9AF99A0FBE019608953D
:041D5000F894FFCF35
:101D5400060201000000010000000000001F050051
:101D64000000000002000000006305000000000005
:00000001FF
